:400000000040002011000000C5030000C503000010B501F023FB000000000000000000000000000000000000000000000000000000000000000000000000000000000000EB
:400040000000000000000000000000000000000000000000000000000000000000000000000000000000000000000000000000000000000000000000000000000000000080
:400080000000000000000000000000000000000000000000000000000000000000000000000000000000000000000000000000000000000000000000000000000000000040
:4000C0000000000000000000000000000000000000000000000000000000000000000000000000000000000000000000000000000000000000000000000000000000000000
:4001000010B5064C2378002B07D1054B002B02D0044800E000BF0123237010BD8001002000000000A4650000084B10B5002B03D00749084800E000BF07480368002B00D199
:4001400010BD064B002BFBD09847F9E70000000084010020A4650000C000002000000000002902D088B20A2900D101487047C046FFFF0000002310B51A0004691921A04751
:4001800010BD002310B51A0004691821A04710BD002310B51A00C4681921A04710BD002310B51A00C4681821A04710BD10B51300C4680A001721A04710BD10B50A00C468EA
:4001C00000231621A04710BD10B50A00C46800231521A04710BD10B500234469A04710BD73B505000C002178172916D009D8152925D36B4662782800DA71EE680023B04723
:400200001BE0192912D9FE2919D16B46627829212800DA71FFF7DFFF0FE06B46DA1D6378012128001370FFF7C1FF06E0002328001A00EE680134B047D5E70234D3E773BDCB
:40024000F8B5040008000B3815001F00042856D803F0EAFC03550B1D29004749002A00D005312000FFF7BCFF84E04349002A06D10A312000FFF7B4FF23689B7C05E0113123
:400280002000FFF7ADFF2368DB7CA37772E02000FFF785FF81212000FFF796FF29002000FFF78BFF27E02000FFF779FF7E79A37F4021F6002000F618FFF786FF1021F6B2F7
:4002C000330919432000FFF77FFF0F2120003140FFF773FFB023B97920001943FFF76DFF3979013DC900C9B23A682000EDB2FFF75DFF002DF4D12000FFF74AFF3AE0092942
:4003000004D11D4B503323600023BEE70A292FD1002328211A0065692000A847002314211A002000E568A84701224B212000FFF752FF236829211A792000FFF74CFF00226D
:400340004B212000FFF747FF236829211A792000FFF741FF01224B212000FFF73CFF236829215A792000FFF736FF0349183178E7002000E00120F8BDA8650000044B1A687C
:40038000511C1960C82A02DD0021012206C370479C0100200122084B40201A60074A936859424B410649DBB293600A689B018243D2B213430B607047300120409C01002056
:4003C0000000044010B501F057FD03680C2B00D1FEE7FEE707B56B46D9710733190001F061FC0EBD70B5040016000D00FFF7C9FE40212000FFF7EEFF33002A0017212569BF
:400400002000A8472000FFF7B5FE70BD1439F8B5040015001E000020052931D8080003F003FC2303031311112000FFF7AAFE00212000FFF7CFFF29002000FFF7CBFF2000EB
:40044000FFF798FE01201BE03200182D07D918212000183DFFF7C6FFEDB21836F4E729002000FFF7BFFFEDE7631CDA7FFF2A01D1873ADA77276933002A0014212000B84755
:40048000F8BD000010B52A290ED007D8282911D0292911D1100001F00DFC0BE02B2906D040390D2908D805E0F020400000E0034801F0D2FC012000E0002010BDB0120000CF
:4004C000143970B505001C0008000C291FD803F0ABFB1C1E1E07141A1E1E1E1E1E1E1C0020269D18AC4210D00A4B1B78334202D0207801F017FC0134F4E70135E87F4008B6
:4005000001F058FB01E001F063FC012000E0002070BDC0464402002073B5134D134CEB68DB00E318D86E02F051F9082206000021684601F0CDFC684601F096FB0C4A00219A
:40054000012001F02BFB1020EB68801BDB00E3184008DA6E0121C0B201F020FBEB68DB00E418A36E984773BD9C010020A8650000C56D000070B5304C304A2369DB0700D47C
:400580002F4A250014352F49280005F043FE2A000221002001F002FB2369284A9B0700D4274A250014352849280005F033FE2A000321002001F0F2FA2369204A5B0700D49A
:4005C0001F4A250014352149280005F023FE2A000421002001F0E2FA2369184A1B0700D4174A250014351A49280005F013FE2A000521002001F0D2FA2369104ADB0600D434
:400600000F4A250014351349280005F003FE2A000621002001F0C2FA2369084A9B0600D4074A14340C49200005F0F4FD22000721002001F0B3FA70BD9C010020D56D0000E0
:40064000DA6D0000DF6D0000EE6D0000FD6D00000C6E00001B6E00002A6E000070B5134D13492C005435AA791434D2B2200005F0D1FD22000321002001F090FA2A790D4945
:40068000D2B2200005F0C6FD22000421002001F085FA6A790849D2B2200005F0BBFD22000521002001F07AFA70BDC0469C010020396E0000446E00004C6E000070B55D4CE4
:4006C00023005B33197823005C331B7825001B020B431A0023005D331878143500040300134322005E3210780006184305F0B2FC0B0002005049280005F08CFD2A00022109
:40070000002001F04BFA23005F331978230060331B781B020B431A002300613318780004030013432200623210780006184305F091FC0B0002004149280005F06BFD2A0044
:400740000321002001F02AFA230063331978230064331B781B020B431A002300653318780004030013432200663210780006184305F070FC0B0002003149280005F04AFD6D
:400780002A000421002001F009FA230067331978230068331B781B020B431A0023006933187800040300134322006A3210780006184305F04FFC0B0002002249280005F08A
:4007C00029FD2A000521002001F0E8F923006C330021595E022001F085FA05F0F3FB05F039FC0022184B03F009FF0B0002001749280005F00FFD6E342A000621002001F03E
:40080000CDF90023E15E012001F06CFA05F0DAFB05F020FC00220C4B03F0F0FE0B0002000B49280005F0F6FC2A000721002001F0B5F970BD9C010020596E0000656E0000DE
:40084000756E0000846E000000408F408E6E0000976E000070B51B4D00202B0070330021595E2C0001F03EFA143402001649200005F0D0FC22000321002001F08FF92B0057
:400880006E330021595E012001F02CFA0F490200200005F0BFFC6C3522000421002001F07DF90023E95E022001F01CFA08490200200005F0AFFC22000521002001F06EF988
:4008C00070BDC0469C010020A06E0000AC6E0000B86E00000121B14AF0B513688DB08B4313600023AE4CAF4DAF4800929A002100032B00D8A95801338150302BF6D172B64C
:4009000080220021D200A94801F0E2FA80220021D200A74801F0DCFA0022FF251100A54E1836A44B0833D4584B0027002C4009194C00013401333419AF43F31801940198FE
:40094000984206D05C1E24781878E41920700233F5E70432102AE4D1C022974B92011A60EE22964B12021A60EE22954BC0211A609923944A1B041360934A09041360934A5D
:40098000934C11603C21934A934D1360934A1360934A944B1A60944A13788B4328390B431370924A023113780B431370C022904B1A60B0228F4BD2031A6008228E4B1A6051
:4009C000C4228E4B12011A6047228D4B1A60C0228C4B52031A6007228B4B1A60D8228B4B12011A6003228A4B1A608A4B21321A60894B163A1A601223236001F036FA802362
:400A00002A68DB050190134000D0AAE08348844F016808AA089183490E68099635260A9626680B96069707927F4A06AE16607F4F7F4E3760126806000391012B46D12B6864
:400A4000002B43DA01F011FA00235A49794F029046313F203A680240585C824200D086E003331F2074490A68024204D10A688243133802430A6080277048714A0168FF0139
:400A80000A4070495943C919C90B01390A43192B00D972E06C490A4302602368059301F0E4F9032223689343013A1343236001F0E0F980222B68D20513432B60142001F020
:400AC000F9F8059B0298236001F0D3F9019801F0D0F95E4A5E4B5F491A605F4A5F4B60481A60604B604A1A60E82252010A605F4919605F490A605F4A5F491A6082231B06F6
:400B000033608023039ADB02136042225B4B1A605B4B023A1A605B4B01321A605A4A5B4B1A6080225A4B1A6000235A4A136003220A6059490A608021584A09061160072219
:400B4000026057480260574A1360574A13680B4313600122009B1B681343009A13600DB0F0BD2A68514B13402B6001234EE701332E2B00D06DE72B3B73E70E4F4C495918DA
:400B8000FB18A0275A3309781B787F0359183A43FF2900D9FF2189057DE7C04600001040C5030000000000000000002000300F4000400F40286600000001024000030240D5
:400BC0000004024000500F4010500F4018500F403000104020500F400000224030500F4010EE0E002001204001700F4000700F40000004400800044000010440080104400C
:400C00000002044008020440180204400803044000040440080404400806044008010B40B6EA000000010B400800104017000080040010402CFF0B4034FF0B4008002240A8
:400C400000F800C040420F000000D43F0600008004010B4000030140007B92000803014000033A400000014042FF008040FF00800403014041FF0080300030402C01014051
:400C800028010140080101401D1B00005C00002000E100E00C020B403000314000003A4040033A40000E3F4080033A40FFFFFFBFCDF1FF0F030010B580240849084A086849
:400CC0006401C3189A1AA24201DC0B6005E001F0D3F80C2303600120404210BDC4000020A0020020F0B587B062B6DC4CDC4D230072331B78002B7FD101F0B7F8C023D94ACA
:400D000011680B43136001F0B4F8D74AD74B1A600722D74B1A60D74B1B68002B01DBD64B00E0D64B2A68D64913432B60D54AD64BD64E1A60D64AD74BD74F1A600023D74AF6
:400D40001360D74A0A60D7490A600121D64A33601360D64A11603A6894466046B446D44A02400A433A60D04A01910292DC26D1499A000C315058CF49B6011831595C0640C1
:400D80003143CD4E961931600199084206D00198614698400968014360460160C5490C315158890706D50198029998400968014302980160BF4980270C3151587F000E0099
:400DC00030003900800501D48021490158003E4203D14F087F423FB200E00027B74E01333752B7484143B748C9128150032BBDD12300012272331A702B68002B0CDBB24AC7
:400E00001368002BFCDB8022F0202B68120613432B60400001F020F8802127009A4A4902136873370B4313603D78A84E002D37D1A74AA84B35601A60A74BA84A1360A84AB5
:400E40001560A84A1560A84A1360A84BA84A1D6080235B00136001F008F8C023A54A11680B43136001F005F8A34AA44B1A601422A34BFF321D60A34B1D60A34B1D60A34B87
:400E80001A60A34BA34A1D60A34B1D6010231370A24B1D80A24B1D60A24B1D6001233B708022336812061343802233609E4B52001A60626F01939D499D4B002A11D19D4D54
:400EC0009D484A608A60CA600A6105600425186828431860994D9A4805609A480260013262670220012580261A68360302431A601A682A431A60944B944A0B607C4B1E6048
:400F0000934B8C331A6000F0B0FFC023554A1B0611680B43136000F0ACFF019B1E60230078331A78002A0ED18A488B4908608E208A49400008608A49FE380D608949086019
:400F400089490A601D7000F090FF01210025874A13680B43136000F08CFF854E0921F31CDD77331DDD77FF23721CD377B21DD377804B2A00B360804B3000F3607F4B35608E
:400F800033617F4BF57773612B00FFF759F92B002A000A21B7683000B8472B002A000B213000B768B847434B42201B33B36104AB1D705D709D70DD701D7100F0FBFD554BB8
:400FC0001B789B0602D5280000F0ACFE00F000FFFFF7A2FA6B4B6C49186802230A6840009A43D2B2834313430B600121674B1A680A420FD01960664B1A68230070331A806C
:40100000644B1A6823006E331A80634B1A6823006C331A800122614B614E1D680393ED09154009D17368934206D1E3689A1803231340E360FFF770FA364B75601B78102B13
:4010400000D0B1E080222A4B52001A60554BFF3A1B68134200D0D4E0AFE0C0469C01002000003A4010E400E0911A00008000002020003A4080033A40402E0013402E101363
:4010800010003A40FC00008004003A4028023A400000FF0718003A4030003A401C003A400200020014003A4038023A4018023A40FFFFFFDFA866000080003A4080020020D0
:4010C000102700008802002008023A4000002440770800806000244007010080000324400403244010032440000224400402244080E100E008E400E07D17000060000020A2
:40110000C80E2440880E2440480F2440080F2440C80F244044020020880F244046020020500200205C02002000E100E06802002010E000E0691A00003C00002080BB00001C
:4011400014E000E018E000E07D03000095030000000000200007040200012040240120403801204014012040080120400000204018020020410200000D040000C10400006E
:4011800085040000040604400006044010023A4080013A4084013A4088013A4004000440C4000020640024405E4B1B78602B28D108215D4A13888B4313802923594A1721DE
:4011C000137000232000594A54301360584A116058490860012058490B7053490B8883430B80564B564919601368564A072B00D904E2042313608522534B1A60534B833A3D
:401200001A608022019B52001A6000F0CBFD01231842FAD06368002B04D1E368002B00D0DDE0AFE000236360E368494ADB00D3189B6E9847E36804AA551C002B06D12B7054
:401240006B708033AB70413BEB7014E004AA1079049B00061B0A184304F0FCFE3D4B3E4A02F0A0FE04F04AFF030A28706B70030C000EAB70E870049B04AA029310791B0A33
:401280000006184304F0E6FE344A354B02F076FE002804D000232B706B70AB70EB70214B1B78102B09D180222E4B52001A602E4BFF3A1B6813422BD108E01A4B1B78602B9A
:4012C00026D10821184A13888B4313802823154A052113700023254A1360254A1360254A1160254A04A91160134A0F49137002220B8893430B801249104B196040231F497F
:401300000B601F490B6084210F4B19600F4B1A6080220225019B52001A6000F043FD2842FBD07AE74402002046020020500200204C0200205402002064020020000F24400F
:4013400017030000C80F24404002244068002440A86500009999B93F9A999999CDCCCCCCCCCC004080E100E064002440580200205C0200204802002060020020800F244021
:40138000880F244023006E330021595E012000F0A9FC04F017FE04F05DFE00229B4B03F02DF902000B000020994903F0C5FF04F0A5FE04F04FFE974A974B06000F0002F0FF
:4013C000DDFD00280BD0934A944B3000390002F0C1FD002803D0022322691343236127008F4B633739781B7826001B020B431A008C4B663618788C4D00040300307813434B
:4014000000061843A96804F0FFFB00280DD0844B38781A78834B12021B7802431B0413431A0033781B061343AB6027007C4B633739781B7826001B020B431A00794B6636E9
:401440001878794D000403003078134300061843E96804F0C5FB00280DD0714B38781A78704B12021B7802431B0413431A0033781B061343EB606D49A86804F0C5FB002863
:4014800009D06B49E86804F0ABFB002803D008232269134323612300220054337932997913780B4313707F2B03D122697E3B13432361270026005F4B5F37397861361B7841
:4014C000250030781B020B4300041A00030062352878134300061843574904F095FB002815D0544B39781B7830781B020B4300041A00030028781343000618434F4904F07A
:401500006FFB002803D01023226913432361270026004B4B5B3739785D361B78250030781B020B4300041A0003005E352878134300061843434904F067FB002815D0404BA5
:4015400039781B7830781B020B4300041A00030028781343000618433B4904F041FB002803D0202322691343236123006C330020185E04F027FD354904F05AFB2A4D061C75
:40158000296904F041FB002800D02E616969301C04F026FB002800D06E61FE216869890504F01EFB00280AD080212869C90504F02BFB002803D0042322691343236123692E
:4015C0003F2B04D1224A803311680B4013604025A368002B00D1FDE4642000F06BFB0120039B1C4A1B6811689B090340DB43A9439B01C9B22B400B431360E9E7802016490B
:4016000040000B6803430B600823F3E500408F400000F03F9A9999999999B9BF9999B93F0002002001020020C4000020000096440000C842FC010020000020410000B4424B
:40164000F80100200000A04100000C4200007A44000204400000044060002440F8B500250E490F4B01394A1C14D000221F685C689E68A018B24203D0B858A0500432F8E708
:401680000200DE68141AA64201D020C2FAE710330139E8E700F0F6FBFFF724FB010000006871000030B5184B9C692278824202D86478844204D208000A000830002416E0BB
:4016C0000C00801A80B2C00080B2821C0A3092B280B29D69AD5C013292B2257001348242F7D1DB7F002B0DD00A00083204E0147001328242FBD1F4E70B78DB430B700131FC
:401700009142F9D130BDC04618020020F0B51600002204001700164B87B004330191DA77134D31786B6828009847124B98421CD0114B01369842F3D0C0B202A9FFF7B2FF3B
:401740006A46127904AB9A7101221A7102AA0492AA685C719446280001220F216546A84701347B1CE4B2DFB2DAE7380007B0F0BD18020020FFFF0000FEFF0000A14BF0B5A0
:401780001B68DB0702D500229F4B1A609F4B1A002C321278920601D4002122E09C4A00211068C00505D5C020D98D80000143D98501211268D20705D59021DA8D89000A4328
:4017C000DA8501E00029E7D01C00012102202C3422780A40821AD88D024392B2DA85002222701A002C3214781020A40600D4CAE0874C256805420CD08649086001211478C4
:4018000021400224611ADC8D214389B2D9851070F6E015782D0719D5022526682E4208D088217C4A89001560DA8D0A43DA8501210CE01578ED0702D52520107006E0242564
:4018400015701A6B002A01D0734A1060180004222C300578154200D192E00578012005423DD008246D4D2E68264220D06C4A5D6B12689E6BAE1B1F252A40B21AA24207D8B8
:40188000002A06D16749684A0D682A400A6001002200664D986BDC6B013A20182C68E4B20470986B01309863002AF3D114E02C68144211D09C6BDD6B2C195C4D2D68EDB2FE
:4018C00025709C6B01349C639D6B5C6BA54202D25748026000E001005648574A48E00222246814421ED04B490A6054491D320D680C68196C2A408A1AE10B08408421101AE8
:40190000186480201A6C89005A64DA8D40020A43DA854B4A116801431160106849490140116048E0484A1068C00623D540209E6C424D464F1F242A682240082A16D01A6C97
:4019400094461A6B944511D21A6B1C6C013AA24202D1314A386010601A6C3D4CB2181278D2B222601A6C01321A64E3E71020374A106005E01268520602D51A6C5A641AE073
:40198000002918D13CE01378034239D131490B685B005B080B60234B107018682E4A02401A6018682D4A02401A6080220B68120613430B6024E01B491B4A086802400A60DD
:4019C000002227490A6014490A601A004C32127892070DD5180001222C3001780A400A218A1AD98D0A4392B2DA856023037007E01C4B1A681823920600D4083B0C4A13608F
:401A0000F0BDC0468C0E2440880E2440180200200C0F2440000F2440880F2440CC0F24400803244060002440FFFEFFFF4003244068002440ED0F0000C00F24400802244057
:401A400004022440FFFFFEFF8C0F2440800F24404002244000002440FF5FFFFFFFFCFFFFC80F244064002440074B10B51B68DB0309D50024054B5033E358002B00D098474B
:401A80000434142CF6D110BD10E000E018020020014B1A681A60704710023A40F8B5050000F0E3F9C023184C1B0222680600134017D1164916480F68164A05403A4015432D
:401AC0000D600A68012B08D100F0CFF9C022236812021343236000F0CCF9300000F0C9F9F8BD00F0C2F9802122680B4BC9011A400A43226022681340802212021343236019
:401B000000F0B7F90123D4E700010B4010020B4004040400FBFBFBFFFF3FFFFF042370B51A4C22681A420FD019490A681A4208D0184A556E08681D40A8430860516E9943E6
:401B400051660420FFF7AAFF80232268DB001A4211D00F490A681A4209D00E4A556E08682B4098430860516E0B4B0B4053668020C000FFF793FF80202368C002034203D068
:401B8000034B1B68FFF78AFF70BDC04610020B40E000002018020020FFFBFFFF10B5034B034C5C60FFF7B2FD10BDC0461802002061010000244930B50C002C342378042262
:401BC000102B3ED1214B92181B68DB0739D4204BF8321A60FF2340001840DB3B23701D4B1D4C18601D4BFE3A23601D4B1A600823FF332268184D1A42FBD004232A681340D4
:401C00000ED10222286810420CD128680E3201332C310A701A00184204D18022520001E0002213000821FF312160002B09D080200C4900060B685B005B080B600B68034386
:401C40000B60100030BDC046180200206400244080E100E040022440000F244017030000680024400000244073B500236A466946537101220A4C0A7122680090557C8B7107
:401C800023680F211A7C20006B46A668B0476B466A469B790133DBB293719D42F0D873BD1802002010B50B00046901221721A04710BD000070B5802504002D02AC4205D99D
:401CC000054800F0C9F8054BE418F7E70448604300F0C2F870BDC0460000C05D0080FFFF80BB000070B50D4D42002B006833D35A8400C91A2B191A6F094ED30F09B29A188C
:401D00004E435310002901DC521053422C199819216F02F01DF800B270BDC04618020020102700001B4B10B5186008231A48FF33026819491A42FBD004230A681340174A2D
:401D400005D0602300202C321370030011E002200C68044203D060242C32147009E0102001230C682C32107018001C4201D1802040000822FF320A60002B09D08021084A8E
:401D8000090613685B005B08136013680B43136010BDC04640022440000F244018020020000024408023074A5B001360064AD08D2C32127880B2920601D504221043034AE5
:401DC0001360704780E100E01802002000E100E01C4A2021130010B52C331B7804200B422ED0194B18681823084200D1083B1749174C0B601223FF33206815491842FBD080
:401E00000B68DB0606D401230868184204D18020400003E0002000E0180003001224FF340C6010212C321170002B09D08021094A090613685B005B08136013680B431360FF
:401E400010BDC046180200206400244068002440000F2440000024400230800803D00138FDD1C046C046C0467047EFF3108072B6704780F310887047014B18687047C046F1
:401E8000440100200E4B70B500251E000D4CE41AA410A54204D0AB00F35898470135F8E705F050F9084B00251E00084CE41AA410A54204D0AB00F35898470135F8E770BDA0
:401EC0005071000050710000507100005871000003008218934202D019700133FAE77047F0B58BB014001D1E129906DA802424061B191D0014002D2300E000230B7020233F
:401F0000149E03229E43462E07D03300453B59424B411099013ACB18109309AB049308AB0393139B00920293109B220001932B0000F0DAFC0700472E02D1119BDB072DD5C0
:401F4000109BFB180793462E14D13B78302B0CD1002200232000290001F0F6FF002804D10123109A9B1A139A1360139B079A1B68D3180793002200232000290001F0E4FFF8
:401F80003022002802D0079B099307E0099B0799994203D9591C09911A70F7E73800099B159ADB1B13600BB0F0BDF7B52B2307000C000270861C002901DA2D234C427B70F4
:401FC000092C1CDD6B46DD1D20000A2101F0A6FF013D3031297020000A2101F0B9FE04000928F1DC013D30342C706B4607333000AB4209D92B78013533700136F5E73023F0
:40200000E4183370B01C7470C01BFEBDF0B595B00C000A920B931A9D099001F02BFA036818000D9300F0D2FB0023129323680E900C930C99277E2B680722C90501D59B1858
:4020400000E0073393431A0008322A601A685B68A264E3640122E56CA66C6B005B080F935242C04B30000F9903F0BAFC002819D10122BC4B524230000F9901F075FF0028B5
:4020800010D1002200233000290001F063FF002803D023002D2243331A70B34D472F0ED8B24D0CE032002B003000290003F098FC002800D19AE1AE4D472F00D8AD4D032380
:4020C0000C9A236101339A432260002642E0672F00D193E1472F00D190E10C9A0021134312AA059211AA0392232223600691019308A9636852180292009332002B00049790
:402100000998FFF7EDFE20233A0005009A43472A00D18EE11199652F00D996E1200001393A0050301191FFF740FF129A060083182361012A00DD85E12268D20700D581E1BB
:40214000232308AA9B181B78002B03D023002D2243331A700B9B13AA009321000A9B099800F0A4F9431C02D1012040429BE12268530501D4236964E0652F00D8CCE0A06CCB
:40218000E16C0022002301F0DFFE00282CD00123794A0A9909980B9DA847431CE4D0119B129A934208DB2368DB0705D4236800259B0700D50FE113E10B9D0E9B0D9A0A99CA
:4021C0000998A8470025431CCED0129B013B9D42ECDA220001231A320A9909980B9EB047431CC1D00135F0E7119B002B2BDC0123614A0A9909980B9EB047431CB4D0119B0C
:40220000002B05D1129B002B02D12368DB07CDD50B9E0E9B0D9A0A990998B0470026431CA2D0119B5B429E420ADA220001231A320A9909980B9FB847431C95D00136F0E75A
:40224000129B2A00ACE0A36D129E9E4200DD1E00002E05DC00230C93F343DB170F9315E033002A000A9909980B9FB847431CF1D17AE7220001231A320A9909980B9FB84785
:40228000431C00D170E70C9B01330C930F9BA26D0C993340D31A9942EBDBAE18119B129A93420DDB2368DB070AD4129B119AED18AD1B9B1A9D4200DD1D00002D09DC11E0E2
:4022C0000E9B0D9A0A9909980B9FB847431CECD14AE72B0032000A9909980B9EB047431C00D141E7EF43FB1700260C930AE0220001231A320A9909980B9FB847431C00D119
:4023000032E70136119A129B0C999B1A2A000A409B1A9E42EBDB49E7129B012B02DC01231A4245D001232A000A9909980B9FB847431C00D118E70E9B0D9A0A9909980B9FA8
:40234000B847431C00D10FE7A06CE16C0022002301F0FAFD002801D000251AE0129B6A1C013B26E0FFFFEF7FE46E0000E06E0000EC6E0000E86E0000F06E000022000123C5
:402380001A320A9909980B9FB847431C00D1EBE60135129B013B9D42F0DB2200330050320A9909980B9DA847431C00D0FEE6DBE62A000A9909980B9DA847431CEDD1D3E6B9
:4023C0002200012319320A9909980B9EB047431C00D1C9E60135E368139A9B1A9D42EFDB139BE06898425EDA18005CE080236268DB00511C00D06AE6073202E0002A02D1B4
:402400000122626069E60C9908A80B430021069112A9059111A90391232109182360019300922B000497029132000998FFF758FD0500119BDA1C02DB626893421CDD023F8C
:40244000FFB267E6013323617AE6662F15D16368002909DD2161002B02D12268D2071ED50133591821611AE0002B03D101222168114213D09A1C11E06727119B129A9342B7
:4024800006DB22682361D20709D50133236106E00121002B01DC4918C91A8A182261119B0026A3654CE615B0F0BDC046F7B5170001938A680B6900900C00934200DA1300A6
:4024C00022003B6043321278002A01D001333B6023689B0602D53B6802333B60062523681D401ED0230043331B785A1E9341226892061CD53020E1184331087021005A1C88
:4025000045310978A2184332023311700FE022000123193201990098089EB047431C0ED00135E3683A689B1A9D42F0DBDAE72200019943320098089DA847431C02D1012040
:40254000404220E006232068E1683A6803400025042B03D18D1AEB43DB171D40A3682269934201DD9B1AED180027BD420AD0220001231A3201990098089EB047431CDED03D
:402580000137F2E70020FEBDF0B58BB006920A0043320793059004920A7E0C00109B6E2A00D1ABE011D8632A22D009D8002A00D1B5E0582A00D0C5E045310A70814A4FE086
:4025C000642A1DD0692A1BD0BCE0732A00D1AAE009D86F2A29D0702A00D0B3E0202209680A43226037E0752A1FD0782A33D0A9E00E001A684236111D196013683370A4E038
:4026000021681A68080606D4490604D5111D19600023D55E02E0111D19601568002D3BDA2D23049A6D42137036E021681A68080606D4490604D51568111D1960ADB202E084
:40264000111D196015685F4B227E039308276F2A1DD00A271BE022007821453211705A4A19680392081D226818600D68100602D4500600D5ADB2D30702D520231A43226023
:402680001027002D03D1202322689A4322602300002243331A7002E00A274A4B03936368A360002B09DB0422216891432160002D05D1049E002B11D07BE0002D79D0049E2E
:4026C0002800390001F040FB039B013E5B5C28003370390001F0B2FA051EF1D1082F09D12368DB0706D563682269934202DC3023013E3370049B9B1B23612BE009681A68C5
:40270000080607D4490605D5111D19601368A28A1A8004E0111D1960136862691A600023049E236116E01A68111D1960166800216268300000F0ACFE002801D0801B606065
:40274000636803E0260042363270012323610023049A1370079B09AA00932100069B0598FFF7A4FE431C02D10120404227E02369320006990598079DA847431CF4D0236889
:4027800000259B070FD4099BE068984217DA180015E022000123193206990598079EB047431CE1D00135E368099A9B1A9D42F0DBE9E72600039B42361B7833708EE70BB03D
:4027C000F0BDC046F26E0000036F00000023C25C0133002AFBD1581E7047F0B503690C6989B00700059100269C4279DC0B00013C1433A50003935B19049303001433029353
:402800005D19049B28681B68591C019301F016FA0190B04233D0039B02989C460696634604CB9C46019B91B25943120C5A4389190B0CD3180793069A1E0C038889B29B1819
:4028400002685B1A110C6A46928B8A1A1914521811149BB21204134308C0049B06916345DDD22B68002B0AD1029B043DAB4201D33C6104E02B68002BFAD1013CF4E7059929
:40288000380001F029F8002829DB0020019B02990133039A019340CA0B881818B3B2C31A0868360C000C801B1D14451928149BB22D042B4308C1049B9342ECD2029AA3008D
:4028C000D3181A68002A0AD1029A043B9A4201D33C6104E01A68002AFAD1013CF4E7019E300009B0F0BD0000F0B516001F00446A9DB00490259D06960797002C08D11020FC
:4029000000F0BCFD049B5862446084600460C460049B5B6A196800290BD05A68012393404A608B60049800F0FFFD0022049B5B6A1A60079B002B05DA01232B607B005B088D
:40294000079301E000232B60079CC84B220019931A409A4219D1C64B249A1360069AC54B002A02D1240300D1C34B269A1800002A01D100F07DFDD978DA1C002900D00532E0
:40298000269918000A6000F073FD069E079F002200233000390001F0D7FA051E0ED00123249A1360B54B269A1800002A01D100F05FFDB34A26990A6000F05AFD1AAB019380
:4029C0001BAB009332003B00049801F00BF8630005905B0D09D03A03AA4C120B1443AA4A300021009E1817951AE01A9B1B9A9E18A64BF318202B08DDA54A0698B218D0404D
:402A00004022D31A9C40204303E020220698D31A984003F07DF801239E4C013E0919179300229D4B02F088FC9C4A9D4B02F00AFA9C4A9D4B01F0B6FA040030000D0003F018
:402A400025F89A4A9A4B02F0FDF902000B002000290001F0A7FA04000D0002F0E1FF0022039000232000290001F074FA00280DD0039803F00BF802000B002000290001F060
:402A800063FA43424341039AD31A039301231693039B162B11D88749DB00C91808684968069A079B01F06AFA002805D0039B013B03930023169300E016901A9B9E1B002367
:402AC0000B93013E0C9604D50C9B5B420B9300230C93039B002B08DB039A0C9B944663440C9300231192089307E00B9B039A9B1A0B935342089300231193229B0125092BDE
:402B000025D8052B02DD0025043B2293229B981E032824D801F088F8060E0204012302E0012308E000231093239B002B20DD1F000A9321E00023239A1093039B9F187B1C61
:402B40000A930123FA18002A16DD130014E0012700237F42229310950A97123305E0012701237F4210930A9711330022239203E001273B000A972397049A546A00226260E0
:402B8000043211001431994204D86168520001316160F6E76168049800F08EFC049B20605B6A1B680D930A9B0E2B00D981E1002D00D17EE1069B079C14931594039B002B2E
:402BC00031DD0F223B491340DB00CB185C681B680E930F94039B02241D11EB060AD514981599354B15401A6A5B6A01F007FD069007910134304E002D0ED001231D4208D000
:402C00000E980F99E4183268736802F01BF90E900F916D100836EEE70E9A0F9B0698079901F0ECFC4CE0039B02245D42002D49D0149815990F231F4A2B40DB00D3181A681B
:402C40005B6802F0FFF80023069007911A4E2D11002D33D00122154205D0A4183268736802F0F0F801236D100836F1E70000F07F0F2700001D6F0000146F0000F06E00005E
:402C8000F16E00000000F03F01FCFFFF3204000012040000000010FE0000F83F61436F63A787D23FB3C8608B288AC63FFB799F501344D33F306F000008700000002B01D049
:402CC00006900791169B002B1DD0069D079E0022C74B2800310001F03DF9002813D00A9B002B10D0002F00DCDFE0039B3100013B0E930022BF4B280002F0A4F80134069003
:402D000007913E0002E0039B0A9E0E93200002F0BDFE069A079B02F095F80022B64B01F041F9B64A12901391129C139D9446139B634418931D00002E1CD106980799002202
:402D4000AF4B02F0F9FA2200189B0690079101F015F9002800D054E2AA481399844661440B0006980799220001F0F4F8002800D03DE29AE0109A731EA349DB00002A49D019
:402D8000CB181A685B680020A04901F037FC2B00220002F0D1FA129013910D9D0698079902F03EFE040002F071FE02000B000698079902F0C1FA01356B1E30341C70129AA0
:402DC000139B0690079101F0C5F8002800D02EE3069A079B0020864902F0AEFA129A139B01F0B8F8002800D0C7E00D9BEB1AB3425BDA1298139900227E4B02F023F8002294
:402E000012901391069807997A4B02F01BF806900791C3E7C9182200086849682B0002F011F80D9C12901391A5190698079902F0F7FD060002F02AFE02000B0006980799E6
:402E400002F07AFA303626700134069007910022A54222D16D4B1298139901F0A3F802000B000698079901F089F8002800D084E0129A139B0020654902F05EFA02000B005F
:402E80000698079901F066F800280ED06B1E1A78302A00D0CBE21D00F8E706980799554B01F0D0FF06900791BFE7149B159C069307941B9B002B00DA81E0039A0E2A00DDBD
:402EC0007DE0D300504AD3185C681B6808930994239B002B15DA0A9B002B12DC00D088E1089809990022464B01F0ACFF069A079B01F04EF80A9B08931E00002800D07BE113
:402F000082E10D9D069E079F089A099B3000390001F074FB02F084FD040002F0B7FD089A099B01F08FFF02000B003000390002F003FA220001356B1E30321A700D9B0A9ACB
:402F4000EB1A9A422ED102000B0001F02BF806000F0002000B000898099900F0FBFF00280FD10898099932003B0000F0EDFF002800D15EE2E30704D45BE20E9B039300E018
:402F80001D006B1E1A78392A08D10D9A9A42F7D1039A0D990132039230220A701A7801321A7046E20022134B01F04CFF0022002306000F0000F0C8FF0028A5D039E2109AD5
:402FC000002A44D0229A012A0BDC179A002A02D00F4A9B1802E036231A9A9B1A089D0B9C29E00A9B5D1E089BAB4213DB5D1B18E00000F03F0000244000001C400000C0FC5A
:40300000000014400000C07C306F00000000E03F33040000089B0895EA1A0025119B9B1811930A9B002B04DA0B9B0A9A9C1A002301E00B9C0A9B0B9A0121D2180B920C9AAD
:403040000498D3180C9300F00FFB060002E0089D0B9C109E002C0ED00C9B002B0BDD0C9A2300944200DD13000B9AE41AD21A0B920C9AD31A0C93089B002B20DD109B002BFC
:4030800017D0002D11D031002A00049800F07EFB059A01000600049800F0EFFA05990E90049800F041FA0E9B0593089B5A1B06D000E0089A0599049800F068FB05900121A8
:4030C000049800F0D1FA119B0890002B00D1C0E11A000100049800F059FB229B0890012B17DC0025069BAB420ED1079B1B03AB420AD1199B079A134206D00B9B013501337F
:403100000B930C9B01330C93119B0120002B0DD000E00025089B089A1B690E9303339B00D318586800F056FA2023181A0C9BC0181F23184009D001331B1A042B02DD1C235A
:40314000181A03E0042B08D018001C300B9B24181B180B930C9B1B180C930B9B002B05DD1A000599049800F065FB05900C9B002B05DD1A000899049800F05CFB0890169B1C
:40318000002B1DD00899059800F0A6FB002817DA039B0A22013B039305990023049800F0DCF9109B0590002B00D159E1310000230A22049800F0D1F90600002F37DC33E0AA
:4031C0000A9B0A9F002B2ADC229B022B27DD002F12D108993B000522049800F0BEF908900100059800F078FB00280DDC04E0089602E000231E000893239B0D9DDB43039304
:403200000AE00E9B089603930D9B0D9A5D1C31231370039B013303930A960026F3E0109B002B04D10D9DB5E0229B022BCFDC002C05DD31002200049800F0FCFA06000A961F
:40324000002D12D07168049800F036F93100040033690C319A1C92000C3000F024F901222100049800F0E6FA0A900D9B7D1E0B935B190E9308990598FFF7AFFA310010901E
:403280000400059800F028FB0A9A05000899049800F03DFB01230C93C36830340700002B04D10100059800F017FB0C903900049800F03AF90C9B229A134308D1069A013359
:4032C000134204D1392C2AD0002D1CDC1DE0002D06DB229B1D431BD10123069A134217D10C9B002B11DD05990122049800F0A2FA0899059000F0F0FA002802DC05D1E3078C
:4033000003D5392C0BD0109C31340B9B5D1C0FE00B9B5F1C0C9B002B0CDD392C05D10B9B0B9A5D1C3923137057E03D000B9B01341C7068E00B9B0E9A3D001C7093423CD081
:4033400000230A220599049800F007F90A9B05909E4208D1310000230A22049800F0FDF806000A900DE0310000230A22049800F0F4F8002306000A220A99049800F0EDF8F2
:403380000A900B9776E700230A220599049800F0E4F8059008990598FFF71FFA0D9B3030287001350400EB1ABB42ECDB3D1E00DC01250A9600260D9B5D19059901220498FC
:4033C00000F038FA0899059000F086FA002804DC13D1E30701D410E01D006B1E1A78392A08D10D9A9A42F7D1039B013303933123137008E001321A7005E06B1E1A78302A6D
:4034000001D11D00F9E70899049800F08DF80A9B002B0ED0002E05D09E4203D03100049800F082F80A99049800F07EF801E00E9B03930498059900F077F800232B70039BB6
:40344000249A01331360269B0D98002B10D01D600EE0229B012B00DC43E6119D012065E6002F00DDDEE6229B022B00DCDAE6AEE61DB0F0BD004870474801002010B5034B24
:403480000100186800F05CFB10BDC04644010020C9B28218904204D003788B4202D00130F8E700207047002310B59A4203D0CC5CC4540133F9E710BD70B5466A04000D00B2
:4034C000002E07D11020FFF7D9FF6062466086600660C660666AF368002B09D0636AAA00DB689B18186800280ED002681A6017E021220421200000F0C9FA636AF060DB6856
:40350000002BEBD100200EE001210E00AE40721D9200200000F0BAFA0028F3D04560866000230361C36070BD70B5456A06000C00002D07D11020FFF7A1FF70624560856039
:403540000560C560002C07D0726A6368D2689B00D3181A6822601C6070BDF7B5070008000C000D691E00002101921430019A0388013153439B190668360C56431A0C94466C
:40358000B4446246160C120494469BB2634408C08D42EBDC002E1BD0A3689D4212DB63683800591CFFF788FF2100236901909A1C92000C310C30FFF776FF21003800FFF769
:4035C000B3FF019C2B1D9B00E31801355E6025612000FEBD00220300010C914201D103041032190E01D108321B02190F01D104321B01990F01D102329B001000002B03DB2B
:4036000020205B0000D5501C70470722036810B501001A400CD001240020234223D10222134203D0E34020000B601CE09B0818E098B2002801D110221B0CD8B2002801D117
:4036400008321B0A180701D104321B09980701D102329B08D80704D45B082020002B02D0013210000B6010BD10B50C000121FFF723FF01234461036110BDF0B50B69140054
:40368000126989B00D00934201DA25000C002F692669AA68BB1969680193934200DD0131FFF70AFF0200BB1914329B00D3189C46002113000290634501D202C3FBE714355E
:4036C000BF00EB191434B6000593A31903950793079B9C4251D2208800281ED015000026039F08CF069504936B461B8A434319002B88CB1804999B19090C41432E68360CEF
:4037000089191E0C89190E0C9BB209040B4308C5059BBB42E5D8069B5E6023681D0C1FD0002110001368039F04913E8801686E43090C7118049E9BB289190E043343036053
:4037400008CF86881B0C6B43090C9B195B18190C0491059906900430B942E6D806994B6004340432B4E704235B429C4463461B68002B05D1019B013B0193019B002BF2DC53
:40378000029B019A18001A6109B0F0BD0323F7B5134005000E001400002B08D02349013B9A00525800233100FFF7D7FE0600A310019338D06C6A002C07D11020FFF75EFECD
:4037C0006862446084600460C4606F6ABC68002C10D117492800FFF747FF0023B8600400036007E0019B5B1001931CD02068002810D004000122019B1342F3D03100220053
:403800002800FFF73AFF070031002800FFF78CFE3E00E7E7220021002800FFF72EFF002320600360E5E73000FEBDC046F86F000071020000F0B50C0017002369551185B02B
:40384000EB180193013300934968A3680290009A934202DA01315B00F9E70298FFF72CFE00230200060019001432AB4203DA980011500133F9E7EB43DB171D402300AD007C
:4038800055192269143392009A1894461F22174014D00132D21B0392002219682800B9400A4304C504CB0399CA409C45F5D84260002A07D0019B0233009303E004CB04C5FA
:4038C0009C45FBD8009B0298013B33612100FFF72BFE300005B0F0BD03690A6910B59B1A0400181E12D1930014341431E218C918043A043913680868834204D083429B412C
:403900000120184302E09442F2D3002010BDF0B50C0085B00700110020001500FFF7DCFF061E07D101003800FFF7C6FD01234661036155E000230193984204DA23002C008D
:403940001D000123019361683800FFF7B5FD019B26692F00C3601434B300E318020002932B69002514379B00FB180393143208CC69469C4608CF0432009363468B808B8865
:403980005D19009B9BB2EB1A65460193009B2D0C190C019B691A1D14131F9C466B4649199B880D1409040B4361460B60039BBB42DDD8029913008C420BD202CC8BB25B191C
:4039C0001D14090C49190D149BB209040B4308C2EFE7043B1A68002A01D1013EF9E7066105B0F0BDF7B51D000121089F1400FFF763FD2B036D0006001B0B6D0D02D0802260
:403A0000520313430193002C18D068460094FFF7FCFD009C002809D0019B20211A00091A8A40C34022437261019300E07461019CB461631E9C410134346107E001A8FFF79D
:403A4000E4FD0124019B346173612030002D06D00B4BED1835232D183D60181A0BE0094BC018094B3860E3189B00F3185869FFF7B1FD6401201A099B18603000FEBDC0466C
:403A8000CDFBFFFFCEFBFFFFFFFFFF3F4A4370B51100140000F054F8051E03D022000021FEF716FA280070BD70B50500002944D00C1F2368002B00DAE418280000F0B2F8B7
:403AC0001E4A13681100002B02D16360146031E0A3420DD92268A018834203D118685B688218226063600C6024E0A24203D813005A68002AF9D11E689819A0420BD121684E
:403B0000711858181960824214D110685268411819605A600EE0A04202D90C232B6009E021686018824203D1106852684118216062605C60280000F076F870BD98020020CE
:403B4000032370B5CD1C9D43083506000C2D01D20C2501E0002D01DBA94202D90C23336048E0300000F05EF8234B1C681A002100002913D00B685B1B0DD40B2B02D90B6022
:403B8000CC181EE08C4202D1636813601AE04B6863600C0016E00C004968E9E7174C2368002B03D1300000F02BF820602900300000F026F8431C18D00323C41C9C43A04220
:403BC0000DD12560300000F02EF8200007220B30231D9043C31A0ED05A42E2500BE0211A300000F00DF8431CEBD10C233000336000F019F8002070BD9802002094020020E6
:403C0000002370B5064C050008002360FDF752F8431C03D12368002B00D02B6070BDC0469C0200207047704702B4714649084900095C49008E4402BC7047C046002243080A
:403C40008B4274D303098B425FD3030A8B4244D3030B8B4228D3030C8B420DD3FF22090212BA030C8B4202D31212090265D0030B8B4219D300E0090AC30B8B4201D3CB039E
:403C8000C01A5241830B8B4201D38B03C01A5241430B8B4201D34B03C01A5241030B8B4201D30B03C01A5241C30A8B4201D3CB02C01A5241830A8B4201D38B02C01A5241C9
:403CC000430A8B4201D34B02C01A5241030A8B4201D30B02C01A5241CDD2C3098B4201D3CB01C01A524183098B4201D38B01C01A524143098B4201D34B01C01A52410309D7
:403D00008B4201D30B01C01A5241C3088B4201D3CB00C01A524183088B4201D38B00C01A524143088B4201D34B00C01A5241411A00D20146524110467047FFE701B500202D
:403D400000F0F0F802BDC0460029F7D076E7704703460B437FD4002243088B4274D303098B425FD3030A8B4244D3030B8B4228D3030C8B420DD3FF22090212BA030C8B42D5
:403D800002D31212090265D0030B8B4219D300E0090AC30B8B4201D3CB03C01A5241830B8B4201D38B03C01A5241430B8B4201D34B03C01A5241030B8B4201D30B03C01AFB
:403DC0005241C30A8B4201D3CB02C01A5241830A8B4201D38B02C01A5241430A8B4201D34B02C01A5241030A8B4201D30B02C01A5241CDD2C3098B4201D3CB01C01A52414B
:403E000083098B4201D38B01C01A524143098B4201D34B01C01A524103098B4201D30B01C01A5241C3088B4201D3CB00C01A524183088B4201D38B00C01A524143088B42B0
:403E400001D34B00C01A5241411A00D201465241104670475DE0CA0F00D04942031000D34042534000229C4603098B422DD3030A8B4212D3FC22890112BA030A8B420CD36D
:403E8000890192118B4208D3890192118B4204D389013AD0921100E08909C3098B4201D3CB01C01A524183098B4201D38B01C01A524143098B4201D34B01C01A5241030935
:403EC0008B4201D30B01C01A5241C3088B4201D3CB00C01A524183088B4201D38B00C01A5241D9D243088B4201D34B00C01A5241411A00D20146634652415B10104601D34C
:403F00004042002B00D54942704763465B1000D3404201B5002000F005F802BD0029F8D016E770477047C0468446101C62468C46191C634600E0C0461FB500F019FF002838
:403F400001D40021C8421FBD10B500F06DFE4042013010BD10B500F00BFF002801DB002010BD012010BDC04610B500F001FF002801DD002010BD012010BDC04610B500F0D0
:403F800093FE002801DC002010BD012010BDC04610B500F089FE002801DA002010BD012010BDC046F8B556465F464D464446F0B40F00FD0FAA4609037C002E005F00450F47
:403FC000490A7F0D2943C5001803BC46400A570F640DDB0F3843D2009A4500D1AAE06646A61B002E00DCFFE06346002B39D10300134300D0D9E06B0709D00F232B40042BD5
:4040000005D02B1DAB42AD416D4249191D000B0200D482E0CA4B01349C4200D1FEE00A005646C84BED081A405007640552020543120B640D002112030B0D1B056405120B5A
:404040001A436308C04CF60714401C43640064083443280021003CBC90469946A246AB46F8BDB74B9C42C6D080231B041843382E00DDEBE01F2E00DD1EE120239B1B9C464C
:4040800003006746BB40984613004746F3403B436746BA40571EBA4113430200F240EB1A9D42B6411D008A1A7642911B0B0231D54A02560A002E00D1B4E0300001F060FDB5
:4040C0000300083B1F2B00DDB5E020222900D21AD1409E400A009D4032439C4200DDB1E01C1B631C1F2B00DDD5E0202114002800C91A8C40D8408D400443DA40681E854180
:4041000011002543002476E74146314300D134E2310045466B0700D06FE756464807ED08C9080543864B9C4235D00A036405120B640D7FE76346E31A9B46002B00DC8BE03F
:404140006746002F3CD07E4FBC4200D153E780273F0438435B46382B00DCF7E00243501E82410020D2B253194218AB4289411D00494289180B02CDD5714B01349C4200D136
:404180003DE101206F4A6B080A4028401843D507054351082FE72B000B4300D1CBE180231B030B431A03120B44E7013E002E6DD1AE1AB5429B41091A5B42C91A350075E710
:4041C0000700174300D116E701235B429C46E3445B46002B00D0E0E0AA18AA429B4109185B4259181500C5E7002E75D1661C7605760D012E00DCF3E0AE1AB0464545BF41D6
:404200000E1A7F42F61B370200D48FE0551BAA42B641411A76428E1B9A464BE756460022002507E7280001F0ABFC20300300083B1F2B00DC49E72A002838824000259C421B
:4042400000DC4DE73F49E41A1140D4E60243501E8241D3B2002222E7002B00D0F3E0631C9C465B055B0D012B00DC9FE0344B9C4500D1C3E0AA180918AA42804140424118BA
:40428000CD075208154349086446B4E62C4B9C4200D0ECE6AFE611001F3CE1400C00202B00D17FE04021CB1A9A4015436A1E95410021254300242DE733000700203BDF40F8
:4042C0003B00202E70D04027BE1BB0400243501E824113430022E2E6002C4FD0184CA44500D1ABE08024240476422143382E00DDDFE01F2E00DD43E12027BC1BA1460C00D2
:404300004F46BC40A0462C004746F4403C434F46BD406F1EBD41F1402C43151BAA429241411A5242891A64469A46BFE641464546314300D0BEE6002600240025F2E6C046E6
:40434000FF070000FFFF7FFFFFFF0F801F2B59DC2027FF1ABC46070063469F405B46B9461700DF40B8464F4643461F4363469A40531E9A415B463A43D840F4E60C002C4310
:404380005CD0F643002E55D1551BAA42A441411A6442091B9A46644688E6964FBC4200D0D8E628E6002280E700208FE70B002B43002C00D0C2E0002B00D101E103001343FA
:4043C00000D118E6AB18AB42B6410918764271180A0200D409E1884A1D00114064460AE6002C5BD10E002E4300D08AE00100114300D1C2E0010015009A46FCE564460021C6
:4044000000258FE620235B429C46DC4463460700DF405B46BC46202B00D1ACE040235F46DB1B98400243501E8241634613431A00002098E66F4CA44500D057E7010015001B
:4044400064469A46D7E5002C39D10C002C436ED0DB43002B1AD0674CA44568D0382B00DDA4E01F2B00DDAEE020240F00E41AA740B9462F00DF40B846A3464F464446274392
:404480005C46A5406C1EA541D9403D43AD1895429B4109185B42591864466BE60C002C4315D1010011437BD0010015009A46514CA1E50D43691E8D410021ECB22DE74D4C9F
:4044C000A44534D0802424045B422143C6E7040014434ED0ED084C072C438025C9082D03294208D0C6082E4205D1D208410711430C009A463100620FC900E50011433D4C99
:4045000079E50600164300D175E5AE1AB0464545BF410E1A7F42F61B370200D4F4E5551BAA42B641411A7642891B9A4663E50100150064465FE5002200257BE5002B3BD058
:404540000300134315D0ED084B072B438025C9082D03294207D0C4082C4204D141070B002100D2081343C9005A0F1143DD00214C41E5204C3FE5002054E700260025D1E5CB
:4045800034000F00203CE7403C00202E2BD04027BE1BB1400D43691E8D4100212C43BCE6802100260903134C0025BBE50D43691E8D410021EDB269E7010015000D4C1AE58E
:4045C0000100150017E51C000F00203CE7403C00202B0CD04027FB1A99400D43691E8D410021254352E70021D4E71D0092E50021F3E7C046FF070000FFFF7FFFF0B55646A8
:404600004D4644465F46F0B41D000E034C00CB0F87B0070092468146360B640D98466AD06D4B9C4235D08022430F12041343F6001E43C3009946694B00279C46002364449D
:4046400002932B0368001B0BED0F51469B46400D009500D178E0604B98426CD05B46DA004B0F802109040B4313439B465346D9005A4B9C46002360444246201A6A4092469D
:4046800001901F430F2F00D9B0E05548BF00C0598746374300D088E0002399460233082700260293CDE74346B34649460093029B009A9246022B00D0BFE10021534601226A
:4046C000002689461A40444B002136030C0D2405360B2643434C1B0526401E437600D207760816434846310007B03CBC90469946A246AB46F0BD330003434FD0002E00D1BA
:40470000BCE1300001F03CFA03000B3B1C2B00DDADE11D220100D31A08393A008F408E40DA40B9461643304B00279C46002360444442029385E753465A4613432CD1002352
:4047400000219B46023397E70B4320D05B46002B00D19EE1584601F013FA03000B3B1C2B00DD8FE102005946083A91408B461D21CB1A5146D9400B0059460B4351469B46E9
:404780009140194B9C4660444042002374E7002300219B4601336FE703236DE70023994601330427002602934BE703230C27029347E70122D51A382D00DCB0E153461A40D4
:4047C00000210023002689467EE700238026994600223603004B77E7FF07000001FCFFFF30700000FFFF0F80F30300005E4500D972E100D16DE1019B4D46013B019300233B
:40480000340002935B461E020B0E1E430B020393330C994633041B0C494620000093FFF70DFA009B370043430600494620009846FFF78AFA2C0C09040C43A04509D9E41959
:40484000731EA74200D95CE1A04500D859E1023EE4194346E41A49462000FFF7EFF90300009A80465343494620009B46FFF76CFA2A040904120C0A4393450DD94346D219A3
:40488000013B974200D93AE1934500D837E102235B429C46D219E0445B46D21A4346360433439B460399180C0B0C1D00059309045B46090C0C001B041B0C44430491594374
:4048C0006B4368431B190D0CEB189C4203D980246402A44660441C0C09041B04090C20185D18824200D2DEE000D1D7E0161A029B9C465D1BAC459B415B42F61AB74200D160
:4049000006E149463000FFF799F9009B04004343494630009846FFF717FA2E0C09040E43B04509D9F619631EB74200D9F3E0B04500D8F0E0023CF6194346F31A49461800B5
:404940000293FFF77BF9009B06004343494602989846FFF7F9F92D0409042D0C0D43A84509D9ED19731EAF4200D9D6E0A84500D8D3E0023EED192404210043463143049ECF
:40498000059A3000ED1A0B040C0C1B0C58436643534354439A19030C9B189E4203D980225202944664441A0C00041B04000C14191B18A54250D34DD001231943964A019BE1
:4049C00094466344002B00DCF3E64A0709D00F220A40042A05D00A1D8A42894149428B4411005A46D20108D55A468C4B1A4093468022D2009446019B6344894A934200DD76
:404A00005BE65A46C908500708435602514601225B058146360B5B0D0A4055E680231B031E4211D05A461A420ED15E461E433603360B2A0089467B4B46E6032B00D1E1E0B4
:404A4000012BBBD11A40BBE61E433603360B4246744B39E6002BB1D07D194A1EAF4252D91100A542A8D1039A9A42A5D1A6E703003E00283B9E400023994654E601F080F868
:404A8000203041E603005246283B9A400021934677E6504601F074F820305EE6029B0026AB4200D323E7039E0299B44661448846B045B6415B467642F619B218013B0291A6
:404AC000974213D290424FD800D18EE0161A9B460DE7894500D28EE674084B46F60735005B081D434B46DB0702938BE69742EDD10399029CA142E5D93E1A9B46F7E69846C6
:404B0000CAE61E00A5E6AC423ED874D0110053E70121494252E71C000EE71E002BE71F2D3CDC20230A0058465B1B9840EA4099400243481E81415E461143EE404B0709D004
:404B40000F230B40042B05D00B00191D99429B415B42F61833023CD55346012200211A40002601238946AFE502235B429C46039CE344A446029B63449846A045B6417642DD
:404B8000F6190293B218B1E603988A1E41008142B6417642F619AD19039161E71F225242D31A5A46DA401300202D29D040225846551BA8400143481E814107200B431840E3
:404BC0000026002809D00F2200261A401900042ABBD10B0070077602360BDB0803439946012253461A4000236EE502998D42BBD89B4600267BE603989842C5D3110032E79F
:404C00000020D7E780265B4636031E433603360B009A8946034B57E5FF030000FFFFFFFEFE070000FF070000F0B55F4656464D464446F0B41F035C00DB0F9A46194B0E03DC
:404C40004D00C90F8046360B6D0D8B4691463F0B640D9D4219D0134B9C421BD00123A54206D018003CBC90469946A246AB46F0BDBE42F6D1C845F4D1D34510D0002DF0D191
:404C8000304303005A1E9341EBE7310001230143E7D1E0E73A430123002AE2D1DEE70023DFE7C046FF070000F0B55F46444656464D46F0B41F033C0B2C4F0E034D00A3463E
:404CC0005C008446360B6D0DC90F9046640DDB0FBD422BD0254FBC422ED0002D0ED130430700814678427841002C17D15F463A4314D14B460020002B0AD006E0002C02D1EA
:404D00005846024301D099421AD00123484218433CBC90469946A246AB46F0BD0028F2D058425841012240421043F1E737000743D0D002204042EBE75F461743CDD0F8E7BF
:404D4000A542E2DC05DB5E45DFD808D000205E45DED248424841012340421843D8E7C445D3D80020C445F4D3D2E7C046FF070000F0B55F464D4644465646F0B41C03240BD8
:404D8000A4462F4C0F034D005E00C90F80463F0B6D0D8B469146760DDB0FA54220D0284CA64222D0002D12D1384344424441002E20D0002C0DD05C42634101245B421C4315
:404DC00020003CBC90469946A246AB46F0BD002E17D05B4519D05B465C4201231C43EFE7390002240143EBD1D9E7614602241143E6D1D7E761460A43DBD100240028DFD0DA
:404E0000E9E761460A43E4D1E5E7B54203DD01225C421443D4E7B542CDDB6745DBD809D000246745CCD259464C426141012449420C43C5E7C845CED80024C845F3D3BFE774
:404E4000FF070000F0B55F4656464D464446F0B40D0399464E002B0B87B00700924680469B46760DCC0F002E69D06D4B9E4235D05B468022DD001204430F13432B439B46C6
:404E8000C3009846674B00279C460023664401934A4615035000D20F53462D0B400D914600D176E05E4A90426CD080225B0F120413435C4AED0094461D4353460022DB00AF
:404EC000604449463618701C6140029017430F2F00D9AFE05448BF00C759BF465B461F4300D088E000239B469846023308270193CEE74946022A6AD0032A00D109E2012A1F
:404F000000D0BBE111400022002300259046CCB200212D030A0D12052D0B1543434A1B0515401D436D00E4076D0825434046290007B03CBC90469946A246AB46F0BD034371
:404F400052D05B46002B00D18AE1584600F018FE03000B3B1C2B00DD7BE11D22D31A3A0001005D46DA4008398D4013008F402B439B46B8462E4B00279C4600236044464268
:404F8000019385E752462A432CD100250023022297E752462A4321D0002D00D154E1280000F0EEFD03000B3B1C2B00DD46E11D21CB1A51460200D9405346083A95409340ED
:404FC0000D431B4A944660444042002279E7012400220C40124B0025904699E70025002301226EE703226CE700239B4698460133042701934CE703230C27019348E7002390
:405000008025984600242D03054B81E75D464346019A6FE75D4643462100019A6AE7C046FF07000001FCFFFF70700000FFFF0F80F30300004246120C91461A0C944642461C
:4050400017044A461B041B0C5A43604690464A4642431000039262461C003F0C7A437C4342440192220C9246019A5244904506D98246802040028046C24450460390100C22
:40508000049048462404240C1204121905922A0C2D042D0C68432C00824648467C4350438146200C8046574357444744BA4503D9802040028046C144380C3F04B84648446D
:4050C0002404240C01900498A044404404905846000C814658460404200C8246070048465F434C464343604660436446834650464443380C8446E4186444A34203D98023E6
:405100005B029C46E34448463F04230C3F0C2404E419574668436F4384464D46504655434243380C814662444A445B44944503D9802040028446654403983F048346049864
:405140003F0C8446E344C345804140428246100484460198674484466744A344BC46A345A4419946D44464428742BF41D4458041E144A04699459B417F424042C8440743F5
:40518000120CBA18A045A4415F423B0064422343D71843467D19DB0D6D021D435B465A02059B1A43531E9A415B46DB0D1A4343465B021343EA0107D501225C081340234319
:4051C000EA07029E13436D08574AB218002A4BDD580709D00F201840042805D0181D98429B415B42ED180300E80104D54F4A15408022D200B2184E48824200DDE7E601242F
:40520000DB08680718436D02530580462D0B5B0D0C407DE6802259461203114208D0154206D115432D0398462D0B4C46414B6FE65D4615432D032D0B3E4B69E6030055464C
:40524000283B9D400023BCE6504600F099FC2030A8E60300283B9F400023BB46984689E600F08EFC203073E60124A61A382E07DD00220C4000230025904649E6029EA3E743
:405280001F2E20DC20222C001800921BF040944093400443581E83411C43F540630709D00F232340042B05D023001C1D9C4292415242AD182B021FD5012400220C4001236C
:4052C0000025904624E61F202C004042821AD440202E1CD04022961BB5402B43581E83410720234318400025002809D00F2200251A401C00042AD8D1230068076D022D0B3B
:405300000124DB08034398460C40002300E60025E3E780220124120315432D0398462D0B0C40044BF4E5C046FF030000FFFFFFFEFE070000FF070000F0B557464E464546A0
:40534000E0B40E001100F20F9246C500420F180337037400400A4E0F7F0A3043CF4E17435A00640D520DDB0FC900B24200D1E5E001267340A61AB446534500D1AFE0002E87
:4053800000DC0DE1002A3AD103000B4300D0E4E06B0709D00F232B40042B05D02B1DAB42AD416D427F191D003B0200D488E0BB4B01349C4200D110E13A00B94B51461A4013
:4053C00001235007ED08520264050543120B640D0B400021280012030D0D120B64052D0515436208AF4CDB072C401443640064081C4321001CBC90469946A246F0BDA74B69
:405400009C42C5D080231B0418436346382B00DDFDE01F2B00DD30E1624620239B1A02009A40664690460A009940F24046464B1E99413243114363460200DA40691A8D421C
:405440009B410D00BA1A5B42D71A3B0235D57A02530A98464346002B00D1C4E0404600F08FFB0300083B1F2B00DDC5E020222900D21A4746D1409F400A009D403A439C4292
:4054800000DDC0E01C1B631C1F2B00DDE4E0202114002800C91AD8408C408D400443DA40681E854117002543002471E7424663461A4300D14CE2674645466B0700D069E7BE
:4054C000012351467807ED08FA080B40054373498C4238D012036405120B640D79E7002E00DC9AE0002A47D06C4A944200D14FE78022120410436246382A00DC08E1014374
:40550000481E81410022C9B24919D219A942BF410D007F42BF183A0200D442E15F4A0134944200D14EE101205D4A69083A4028400843D507054357089A4629E706000E43B2
:4055400000D017E714E72900114300D1F9E1802109030A431203120B3BE701235B429846C4446346002B72D1691A8D429B413F1A5B42FF1A0D0068E702000A4300D107E787
:40558000012252429046C4446246002A00D0E6E06918A942B6413F187642F7190D00BAE7002E00D080E0621C5205520D012A00DCF9E06A1A91464D45B6413A1A7642921BAF
:4055C0009046120200D499E04D1BA9428941C71B49427A1A90469A463CE752460123002513400022F5E6280000F0CAFA20300300083B1F2B00DC39E72A0028388240002523
:405600009C4200DC3EE7264FE41A1740C0E60143481E81410022C9B210E7002E00D0F1E0621C94465205520D012A00DCA0E01B4A944500D1C5E06918A94292413F185242D9
:40564000D2194908D5070D4357086446A0E6134B9C4200D0D9E69BE611001F3CE1400C00202B00D180E04021CB1A9A4015436A1E95410027254300241FE763460200203B3D
:40568000DA406346202B71D0402366469B1B98400143481E814111430022CFE6FF070000FFFF7FFFFFFF0F80002C48D0CA4CA24200D1A2E07442A1468024240427434C4662
:4056C000382C00DDDBE01F2C00DD44E14E462024A41B3E00A640A246B0464C462E00E640B4464646644626435446A5406C1EA54134002C434D46EF400D1B28E04A464346AC
:405700004D461A4300D0A5E6002300240025DEE61F2A5ADC66462022921B060096409146B04662460E00D640424616434A4691404A1E9141020060463143C240E4E63C00BF
:405740002C435AD0F443A146002C52D14D1BA9428941C71B49427F1A14009A4675E69E4A944200D0C7E613E600227FE700208FE7002C00D0C8E03B002B4300D10FE103004E
:405780000B4300D104E66918A9429B413F185B42DF193B0200D41AE1904B0D001F406446F6E59A4689E63A002A43002C5CD1002A75D102000A4300D1CAE007000D009A4657
:4057C000E6E564460022002581E662460600203AD6406246B046202A00D1B7E040226646921B904001434246481E8141114300228AE6794CA24200D061E707000D001400CA
:405800009A46C5E5002C41D13C002C4378D0F443A146002C20D0704CA24271D04C46382C00DDB2E01F2C00DDBCE02026341BA2463C005646B4404E46A0462C00F440A4465C
:40584000444666463443A4465446A54064466E1EB54125434C46E7406D188D4289413F184942CF19140056E6002A2FD102000A4300D184E007000D009A46574C88E53D435B
:405880006F1EBD41ECB200270D1B60E7524CA24236D0744280263604A1463743BEE702000A4300D174E56A1A90464545B6413A1A7642921B9446120200D4F7E54D1BA94207
:4058C0008941C71B49427F1A9A4661E502000A433AD0ED087C072C438025FA082D032A4208D0C7082F4205D145072C003A009A46C9080C43670FD200E5001743364C47E55A
:4059000007000D00140043E53A002A4343D002000A4319D0ED087C072C438025FA082D032A4207D0C6082E4204D147073C003200C9080C43D700620FE50017439A46264C5C
:4059400026E50022002544E5234C21E5002049E700230025BBE54C463E00203CE6404C46B446202C31D040244E46A61BB7403D436C1EA54164462C4300270D1BE7E680225D
:4059800000231203144C0025A1E53D436F1EBD410027EDB260E707000D000F4CF8E407000D00F5E44E463C00203EF440A0464C46202C0ED040244E46A41BA7403D436F1EA5
:4059C000BD4144460027254346E70027CFE70D0073E50027F2E7C046FF070000FFFF7FFF70B50E4E0C031D0349005B00240B490D2D0B5B0DB14204D0084900208B4208D043
:405A000070BD04430120002CFAD1044900208B42F6D115432800451EA841F1E7FF0700000B0330B5134D1A0B4B005B0DC90F0024AB4211DD104CA34210DC80246403224390
:405A40000E4CE41A1F2C0CDD0D48C31ADA4013005C42002900D11C00200030BD094BCC18FAE7E040084CA44663449A4013000343EEE7C046FE0300001D04000033040000F5
:405A800013040000FFFFFF7FEDFBFFFF70B5002830D0C317C4185C40C50F200000F070F8174B184A1B1AD21A1F2A18DD164AD21A9440002224035B05240B5B0D00211000CE
:405AC00024030A0D1205240B1443104A1B0514401C436400ED0764082C43210070BD210091400A000B21081AC4405B052403240B5B0DE3E70025002300240022DEE7C0468E
:405B00001E0400003304000013040000FFFF0F8070B5051E28D000F033F8154B154A1B1AD21A1F2A16DD2C00134A0025D21A94405A052403240B520D002124030B0D240BE0
:405B40001B0523430D4C1205234013435B002800590870BD0B212C00081AC440954024035A05240B520DE7E700220024E4E7C0461E0400003304000013040000FFFF0F801C
:405B80001C2101231B04984201D3000C10391B0A984201D3000A08391B09984201D30009043902A2105C40187047C046040302020101010100000000000000008446081C0A
:405BC0006146FFE71FB500F0B9F9002801D40021C8421FBD10B500F045F94042013010BD10B500F0ABF9002801DB002010BD012010BDC04610B500F0A1F9002801DD002078
:405C000010BD012010BDC04610B500F053F9002801DC002010BD012010BDC04610B500F049F9002801DA002010BD012010BDC046F0B5564644465F464D46F0B444024600AE
:405C4000C70F83B08846650A360EBA463DD0FF2E22D00023EC00802599469B46ED0425437F3E43465C025800DB0F640A000E984636D0FF2830D080230021E400DB041C434E
:405C80007F38301A0190484642460843724E800030587A4013008746002D44D108239946063B9B46DDE70122FF2000241A406402C305640AD2071C431443200003B03CBCA7
:405CC00090469946A246AB46F0BD002D20D104239946033B9B46C4E7002C17D1022102E0002C0AD10121321A01924A4643460A435A48920082587B4097462000FFF740FFF9
:405D0000431F76309C4040420021BAE70321B8E72800FFF735FF431F9D4000237630464299469B469DE70C239946093B9B4698E780240022E403FF20B9E70024C2468B4637
:405D40005A465346022AAED0032A7DD0012A31D1012200201A400024A9E70122101A1B2856DD1A4000200024A1E78023DB031D424BD18023DB032B435C02640A3A00FF204F
:405D800095E76D016001854230D2019A0024013A01921B220127290064006D00002901DBA84201D82D1A3C43013A002AF3D16A1E95412C4301987F300028CEDD620704D007
:405DC0000F222240042A00D00434220103D5244A019814408030FE2800DD64E70122A401640AC0B21A4062E72C00A9E72D1A1A220124CFE76B02BCD500248023DB031C431F
:405E00006402640A4246FF2051E71C42B3D1F4E721002022C140101A8440621E94410C43620704D00F222240042A00D00434620104D5012201201A40002438E70122A40111
:405E4000640A1A40002032E78023DB031C436402640A5246FF202AE7B0700000F0700000FFFFFFF7430270B542004C005D0AC30F4802120E460A240EC90FFF2A0FD0FF2C09
:405E800011D00120A24200D070BDB542FCD18B420DD0002AF8D12800431E9841F4E70120002DF1D1EBE70120002EEDD1E9E70020EAE7C0464302F0B542005D0AC30F4802FC
:405EC000440A4800120E000EC90FFF2A1FD0FF2822D0002A09D16E426E4100280FD1002C0DD10020002D09D005E0002801D1002C01D08B4213D0584201231843F0BD002EBA
:405F0000F7D048424141012049420843F6E7002DDDD002204042F1E7002CDAD0F9E78242E9DC04DBA542E6D80020A542E6D25842434101205B421843E0E7C0464302F0B5F4
:405F400042004C005E0AC30F4802120E450A240EC90FFF2A17D0FF2C19D0002A0BD170427041002C17D0002807D048424141012049420843F0BD002C13D08B4214D05842ED
:405F800001231843F6E70220002EF3D1E3E70220002DEFD1E1E7002DE5D10020002EE9D0EDE7002DE9D1EAE7A242E8DC04DBAE42E5D80020AE42DDD25842434101205B428B
:405FC0001843D7E770B5002830D0C317C5185D40C40F2800FFF7D4FD9E231B1A962B0DDC9622D21A95406A02520AD8B25202C005520AE40702432243100070BD992B19DCBA
:406000009922D21A9540124A2A40690704D00F210D40042D00D00432510103D50C4B1A409F231B1A9201520AD8B2DFE7002400200022DBE705222E00121AB921D6402A0052
:40604000C91A8A40551EAA4135001543DBE7C046FFFFFFFB4200120E511C4302C9B270B55D0AC40F012915DDE02189008C466D071B0B6244002128000D0D2D052B431C4DB6
:4060800052052B40520813435B00E4075B082343190070BD002A15D1002D1FD02800FFF76FFD0A281DDC0B232A001B1ADA4013000200153295400F4A1B03121A52051B0B40
:4060C000520DD7E7002D06D080221B0B120313436D07094ACEE7084A0023CBE700220023C8E703000B3B9D402B000025E3E7C046FFFF0F8089030000FF0700004B0070B5E1
:406100005E0D0C03751C640A420F6D052243C90FC4006D0D012D2ADD3B4BF318FE2B1ADC002B42DD8001451EA841D2001043620F0243500704D00F201040042800D00432F5
:406140008020C004104021D00133FF2B03D09201520ADBB201E0FF2300225202520ADB0513435B00C9075B080B43180070BD002E07D01443EFD08020D20080040243FF2329
:40618000D7E722430023002A03D00522D208FF2B03D05202520ADBB2DFE7002A32D08020C00302435202520AD7E71800173014DB8020000402431E20C01A1F280FDC2500B3
:4061C000124BF3189D406E1EB5419A402B0013432200C2401A430023ABE70023D5E702256D42EB1A1500DD40202809D0084BF3189A401443621E9441220000232A4398E725
:406200000022F6E70022A8E780FCFFFF82FCFFFFA2FCFFFF0EB410B59DB002A9029008610B48822488604861012040421FABC881084804CBA400006801938C8100F06EF840
:406240000023029A13701DB010BC08BC03B01847FFFFFF7F44010020F0B58E6885B007000C00039201939E4243D890238A89DB001A423ED003250969236801985B1A0293B2
:4062800063695D43EB0F5D19029B6D1001331B18AB4200D91D00530510D529003800FDF74FFC061E14D0029A2169FDF7FCF8A289194B134080221343A38112E02A00380059
:4062C00000F03FF9061E0CD121693800FDF7ECFB0C23402201203B60A38940421343A38117E0029B2661F61826606561019EED1AA560019BB34200D21E003200039920686C
:4063000000F00AF90020A3689B1BA36023689E19266005B0F0BDC0467FFBFFFFF0B59FB0029005938B890F0016001B0610D50B69002B0DD14021FDF703FC38603861002857
:4063400004D10C23029A01381360D8E040237B61002306AD6B6120336B761033AB7634002378002B03D1A31B049312D003E0252BF9D00134F4E7A31B320039000298FFF7D6
:406380006BFF431C00D1B4E06A69049B944663446B612378002B00D1ABE00122002352426A6002A95432521801342B60EB60AB601370AB65534E217805223000FDF768F801
:4063C000002807D00123801B83402A68013413432B60EFE72B68DA0604D55322202102A8121811701A0704D553222B2102A81218117022782A2A03D0099B00200A210EE099
:40640000059A111D12680591002A01DB099204E05242EA60022213432B6001340BE02278303A092A04D84B4301349B180120F6E7002800D0099323782E2B1ED163782A2BC9
:406440000AD1059B02341A1D1B680592002B01DA01235B42079310E000230A201A0001346B6021783039092904D84243013452180123F6E7002B00D00792234E217803226A
:406480003000FDF705F8002806D04023801B83402A68013413432B60217806221B48661C2976FCF7F5FF002812D0194B002B06D10722059B073393430833059314E005AB68
:4064C00000933A00134B29000298FBF79FFD07E005AB00933A000F4B29000298FCF754F80390039B013304D06B69039A9B186B6135E7BB890B985B0601D5012040421FB08B
:40650000F0BDC04630710000367100003A7100000D2000005962000010B5884202D98B18984201D3002305E09B1A013A08D3995C8154FAE7934203D0CC5CC4540133F9E798
:4065400010BDF8B506000C001500002904D11100FDF7F6FA040018E0002A03D1FDF7A4FA2C0012E000F013F885420ED929003000FDF7E6FA071E07D021002A00FCF793FF3B
:4065800021003000FDF790FA3C002000F8BD0B1F1A68101F002A04DA891804390B68D01804387047000000001815AF19FF1815AE19FF1815A115C819FF1815A015C019FF88
:4065C0001815AE15D5168015A8163F15D316001540158D16141520160015A115C815DA1612158116CF15D916F115DB1640152E15A415A619FF0000000001140A646432324A
:4066000000093D0000042896100800008000400075050000C36E0000BD060000C86E000055080000CF6E00005D060000D86E000005320F4005330F4002400F400B410F405A
:40664000200136013E4058045F0116801F4082808740C4100E08C28003044A045F1083048710A204C040D210D620E080E210030405060708090A0B0C0E0F10111213141515
:40668000161718191B1C1D1E1F2021222325262728292A2B2E2F303132333435EEDBC9B9AA9B8E82766B60564D443B332C241D17100A0400000400000004000000040000DD
:4066C00000010220FF00000000000000000000005F5F0000000007070007070000147F7F1C7F7F140000242A7F7F2A1200466630180C666200307A4F5D377A4800000000BF
:40670000070700000000001C3E63410000000041633E1C0000082A3E1C1C3E2A080008083E3E080800000080E0600000000008080808080800000000606000000060301843
:406740000C060301003E7F5149457F3E000040427F7F40400000727B49496F660000226149497F36001814527F7F50100000276F4949793300003E7F49497B3200000301DC
:40678000717D0F070000367F49497F360000266F49497F3E000000006C6C000000000080EC6C00000000081C36634100000024242424242400004163361C0800000002036C
:4067C00051590F06003E7F415D5D5F1E00007C7E13137E7C00417F7F49497F36001C3E634141632200417F7F41633E1C00417F7F495D416300417F7F491D0103003C7E43D5
:406800004151737200007F7F08087F7F000041417F7F414100307040417F3F0100417F7F081C776300417F7F41406070007F7F0E1C0E7F7F007F7F060C187F7F001C3E630F
:4068400041633E1C00417F7F49090706003C7E4351336E5C00417F7F09193F660000266F49497B32000003417F7F410300003F7F40407F3F00001F3F60603F1F007F7F302B
:4068800018307F7F0061731E0C1E73610000074F78784F0700476371594D67730000007F7F414100000103060C18306000000041417F7F0000080C0603060C0800808080F6
:4068C0008080808080000002060C080000207454543C784000433F7F44447C380000387C44446C2800387C44453F7F400000387C54545C180000487E7F490302000098BCCD
:40690000A4A4FC7C00417F7F08047C78000000447D7D4000000060E08084FC7D00417F7F10386C44000000417F7F400000787C0C380C7C7800047C78040478780000387C8B
:4069400044447C380084FCF8A4243C1800183C24A4F8FC8400447C78440C08000000485C545474200000043F7F44642000003C7C40407C7C00001C3C60603C1C003C7C6001
:4069800038607C3C00446C3810386C4400009CBCA0A0FC7C00004C64745C4C4400004141773E0808000000007F7F0000000008083E774141000203010302010100000000EE
:4069C0000000000000000000FFFF00000018181818181818180000001F1F181818000000F8F8181818181818F8F80000001818181F1F0000001818181F1F1818180000008F
:406A0000FFFF181818181818F8F8181818181818FFFF000000181818FFFF18181800081C3E0808080000080C3E0C080000000808083E1C08000008183E18080000000000E4
:406A400000F0F0F0F0F0F0F0F000000000F0F0F0F0F0F0F0F0000000000F0F0F0F00000000FFFFFFFFF0F0F0F00F0F0F0FF0F0F0F0FFFFFFFF0F0F0F0F000000000F0F0FBD
:406A80000FF0F0F0F0FFFFFFFF00000000FFFFFFFFF0F0F0F00F0F0F0F0F0F0F0F0F0F0F0FFFFFFFFFFFFFFFFF0F0F0F0FFFFFFFFFFFFFFFFFC0C0C0C0C0C0C0C0FCFCFC7B
:406AC000FCFCFCFCFC00000000000000000000007D7D000000387C44FE446C2800487E7F4949636200005A3C24243C5A000015577E7E571500000000777700000040487E0A
:406B0000771D09010000030300000303001C225D5555221C00485D554F5E500000081C362A1C362200000808080808180000001010100000001C225D4D55221C000000014D
:406B40000101010000000E1B111B0E00000048487E7E48480000191D1517120000001115151F0A0000000004070300000000F8F84040783800020F7F7F017F0100000000FD
:406B8000181800000000004040600000000000111F1F100000004E5B515B4E000022361C2A361C0800021F0030287C2000021F0048645448001115150A30287C200030786C
:406BC0004D4570300000787D15147C780000787C14157D780000787C15157C780000787D15157D780000797D14147D790000787E15157E7800787C127F7F496B000C9EB3DA
:406C0000E1E1331200447D7D5454544400447C7C5555544400447C7D5555554400447D7D54555544000044457D7C4444000044447C7D4544000044457D7D454400004545A7
:406C40007C7C454500497F7F49633E1C00007A7911227A7900387C4545447C3800387C4444457D3800387C4545457C3800387D4545457D3800387D4544457D380042663C34
:406C8000183C6642005C3E735D673E1D01003C7D41407C3C00003C7C40417D3C00003C7D41417D3C00003D7D40407D3D00000C5D71705C0C007F7F2222221C00007E7F4967
:406CC00049493E3600207555543C784000207454553D784000207455553D784000207555553D794000207555543D794000207655553E7840002074547C3454580000183CC0
:406D0000A4E424280000387D55545C180000387C54555D180000387D55555D180000397D54545D19000000497B7A4000000000487A7B41000000004A797942000000024A6D
:406D400078784202000035754B4E7D3100087A71090A7A71000030794B4A7830000030784A4B79300000307A49497A3000003279494A7A310000327A48487A32000008086A
:406D80006B6B08080080B07868587834040038794342787800003878424379780000387A41417A7800003A7A40407A7A000098B8A2A3F97800007E242424180000009ABADF
:406DC000A0A0FA7A0050536F432041464520536869656C640050617373004661696C00427574746F6E7320203D20202573004441432020202020203D2020257300504F543E
:406E00002020202020203D2020257300414C532020202020203D202025730048554D4944495459203D202025730054454D5020202020203D2020257300427574746F6E734C
:406E40003D2578004C4544733D2578004C454420436E74726C3D25780054656D703D252E316620430048756D69646974793D252E3166252500496C6C756D3D252E3166201C
:406E80006C757800506F743D252E3266560041323D252E3266560041313D252E3266560041303D2564206D562020200041313D2564206D562020200041323D2564206D56D6
:406EC000202000546573740056616C75657300426173652041444300427574746F6E7300494E4600696E66004E414E006E616E003000303132333435363738394142434475
:406F00004546003031323334353637383961626364656600496E66696E697479004E614E00504F534958002E0000000000000000000000000000F03F0000000000002440C9
:406F400000000000000059400000000000408F40000000000088C34000000000006AF8400000000080842E4100000000D01263410000000084D797410000000065CDCD41D0
:406F8000000000205FA00242000000E876483742000000A2941A6D42000040E59C30A2420000901EC4BCD64200003426F56B0C430080E03779C3414300A0D8855734764394
:406FC00000C84E676DC1AB43003D9160E458E143408CB5781DAF154450EFE2D6E41A4B4492D54D06CFF08044F64AE1C7022DB544B49DD9794378EA440500000019000000D1
:407000007D000000000000000080E03779C34143176E05B5B5B89346F5F93FE9034F384D321D30F94877825A3CBF737FDD4F1575EC470000BA460000C0470000B046000024
:40704000C0470000CA470000C0470000B0460000BA460000BA460000CA470000B0460000A6460000A6460000A64600001C4A000034500000F44E0000F44E0000F24E000082
:407080000C5000000C500000FE4F0000F24E00000C500000FE4F00000C500000F24E000014500000145000001450000014520000825D0000A65C0000645D00003C5D000079
:4070C000645D0000305D0000645D00003C5D0000A65C0000A65C0000305D00003C5D0000E85D0000E85D0000E85D00006A5D0000A65C0000A65C0000505D00003A5D0000E0
:40710000505D0000305D0000505D00003A5D0000A65C0000A65C0000305D00003A5D0000E85D0000E85D0000E85D0000F45D0000232D302B2000686C4C006566674546479A
:4071400000000000F8B5C046F8BC08BC9E46704729010000D5080000F8B5C046F8BC08BC9E4670470101000078710000C0000020C00000002001000000000000A00200200E
:40718000010000000000C842000096440000803F00000040F0000000040404000000000000000000000000000000000000000000000000000000000000000000636E00001E
:4071C000000000000000000000000000000000000000000000000000000000000000000000000000000000000000000000000000000000000000000000000000E40000208B
:40720000276F0000AB6E0000AB6E0000AB6E0000AB6E0000AB6E0000AB6E0000AB6E0000AB6E0000AB6E0000FFFFFFFFFFFFFFFFFFFFFFFFFFFF00000000000000000000E5
